{
  "contractName": "SimpleStorage",
  "abi": [
    {
      "inputs": [
        {
          "internalType": "uint256",
          "name": "_a",
          "type": "uint256"
        }
      ],
      "name": "setter",
      "outputs": [],
      "stateMutability": "nonpayable",
      "type": "function"
    }
  ],
  "bytecode": "0x608060405234801561000f575f80fd5b5060d98061001c5f395ff3fe6080604052348015600e575f80fd5b50600436106026575f3560e01c8063d423740b14602a575b5f80fd5b60406004803603810190603c9190607d565b6042565b005b805f8190555050565b5f80fd5b5f819050919050565b605f81604f565b81146068575f80fd5b50565b5f813590506077816058565b92915050565b5f60208284031215608f57608e604b565b5b5f609a84828501606b565b9150509291505056fea26469706673582212205956f6395cf7b96ae0b3d43090421c3ab8b35517713879597544ba6b6f0d7cfb64736f6c63430008150033",
  "immutableReferences": {},
  "source": "// SPDX-License-Identifier: MIT\npragma solidity >=0.5.0 <0.9.0;\n\ncontract SimpleStorage{\n    uint256 a;\n\n    function setter(uint256 _a) public {\n        a = _a;\n    }\n}",
  "sourcePath": "/Users/aryanjha/Demo/contracts/SimpleStorage.sol",
  "compiler": {
    "name": "solc",
    "version": "0.8.21+commit.d9974bed.Emscripten.clang"
  },
  "schemaVersion": "3.4.16",
  "updatedAt": "2024-08-01T16:56:42.199Z",
  "networkType": "ethereum",
  "devdoc": {
    "kind": "dev",
    "methods": {},
    "version": 1
  },
  "userdoc": {
    "kind": "user",
    "methods": {},
    "version": 1
  }
}